{
  "_format": "hh-sol-artifact-1",
  "contractName": "MemeToken",
  "sourceName": "contracts/MemeToken.sol",
  "abi": [
    {
      "inputs": [
        {
          "internalType": "string",
          "name": "name_",
          "type": "string"
        },
        {
          "internalType": "string",
          "name": "symbol_",
          "type": "string"
        },
        {
          "internalType": "uint256",
          "name": "initialSupply_",
          "type": "uint256"
        },
        {
          "internalType": "address",
          "name": "router_",
          "type": "address"
        },
        {
          "internalType": "address",
          "name": "taxWallet_",
          "type": "address"
        },
        {
          "internalType": "uint256",
          "name": "taxBps_",
          "type": "uint256"
        },
        {
          "internalType": "uint256",
          "name": "maxTxAmount_",
          "type": "uint256"
        },
        {
          "internalType": "uint256",
          "name": "dailyTxLimit_",
          "type": "uint256"
        }
      ],
      "stateMutability": "nonpayable",
      "type": "constructor"
    },
    {
      "anonymous": false,
      "inputs": [
        {
          "indexed": true,
          "internalType": "address",
          "name": "owner",
          "type": "address"
        },
        {
          "indexed": true,
          "internalType": "address",
          "name": "spender",
          "type": "address"
        },
        {
          "indexed": false,
          "internalType": "uint256",
          "name": "value",
          "type": "uint256"
        }
      ],
      "name": "Approval",
      "type": "event"
    },
    {
      "anonymous": false,
      "inputs": [
        {
          "indexed": false,
          "internalType": "uint256",
          "name": "maxTxAmount",
          "type": "uint256"
        },
        {
          "indexed": false,
          "internalType": "uint256",
          "name": "dailyTxLimit",
          "type": "uint256"
        }
      ],
      "name": "LimitsUpdated",
      "type": "event"
    },
    {
      "anonymous": false,
      "inputs": [
        {
          "indexed": true,
          "internalType": "address",
          "name": "previousOwner",
          "type": "address"
        },
        {
          "indexed": true,
          "internalType": "address",
          "name": "newOwner",
          "type": "address"
        }
      ],
      "name": "OwnershipTransferred",
      "type": "event"
    },
    {
      "anonymous": false,
      "inputs": [
        {
          "indexed": false,
          "internalType": "address",
          "name": "router",
          "type": "address"
        },
        {
          "indexed": false,
          "internalType": "address",
          "name": "pair",
          "type": "address"
        }
      ],
      "name": "RouterUpdated",
      "type": "event"
    },
    {
      "anonymous": false,
      "inputs": [
        {
          "indexed": false,
          "internalType": "uint256",
          "name": "newBasisPoints",
          "type": "uint256"
        },
        {
          "indexed": false,
          "internalType": "address",
          "name": "taxWallet",
          "type": "address"
        }
      ],
      "name": "TaxUpdated",
      "type": "event"
    },
    {
      "anonymous": false,
      "inputs": [],
      "name": "TradingEnabled",
      "type": "event"
    },
    {
      "anonymous": false,
      "inputs": [
        {
          "indexed": true,
          "internalType": "address",
          "name": "from",
          "type": "address"
        },
        {
          "indexed": true,
          "internalType": "address",
          "name": "to",
          "type": "address"
        },
        {
          "indexed": false,
          "internalType": "uint256",
          "name": "value",
          "type": "uint256"
        }
      ],
      "name": "Transfer",
      "type": "event"
    },
    {
      "inputs": [
        {
          "internalType": "uint256",
          "name": "amountTokenDesired",
          "type": "uint256"
        },
        {
          "internalType": "uint256",
          "name": "amountTokenMin",
          "type": "uint256"
        },
        {
          "internalType": "uint256",
          "name": "amountETHMin",
          "type": "uint256"
        },
        {
          "internalType": "uint256",
          "name": "deadline",
          "type": "uint256"
        }
      ],
      "name": "addLiquidityETH",
      "outputs": [
        {
          "internalType": "uint256",
          "name": "amountToken",
          "type": "uint256"
        },
        {
          "internalType": "uint256",
          "name": "amountETH",
          "type": "uint256"
        },
        {
          "internalType": "uint256",
          "name": "liquidity",
          "type": "uint256"
        }
      ],
      "stateMutability": "payable",
      "type": "function"
    },
    {
      "inputs": [
        {
          "internalType": "address",
          "name": "owner",
          "type": "address"
        },
        {
          "internalType": "address",
          "name": "spender",
          "type": "address"
        }
      ],
      "name": "allowance",
      "outputs": [
        {
          "internalType": "uint256",
          "name": "",
          "type": "uint256"
        }
      ],
      "stateMutability": "view",
      "type": "function"
    },
    {
      "inputs": [
        {
          "internalType": "address",
          "name": "spender",
          "type": "address"
        },
        {
          "internalType": "uint256",
          "name": "amount",
          "type": "uint256"
        }
      ],
      "name": "approve",
      "outputs": [
        {
          "internalType": "bool",
          "name": "",
          "type": "bool"
        }
      ],
      "stateMutability": "nonpayable",
      "type": "function"
    },
    {
      "inputs": [
        {
          "internalType": "address",
          "name": "account",
          "type": "address"
        }
      ],
      "name": "balanceOf",
      "outputs": [
        {
          "internalType": "uint256",
          "name": "",
          "type": "uint256"
        }
      ],
      "stateMutability": "view",
      "type": "function"
    },
    {
      "inputs": [
        {
          "internalType": "uint256",
          "name": "amount",
          "type": "uint256"
        }
      ],
      "name": "burn",
      "outputs": [],
      "stateMutability": "nonpayable",
      "type": "function"
    },
    {
      "inputs": [
        {
          "internalType": "address",
          "name": "account",
          "type": "address"
        },
        {
          "internalType": "uint256",
          "name": "amount",
          "type": "uint256"
        }
      ],
      "name": "burnFrom",
      "outputs": [],
      "stateMutability": "nonpayable",
      "type": "function"
    },
    {
      "inputs": [],
      "name": "dailyTxLimit",
      "outputs": [
        {
          "internalType": "uint256",
          "name": "",
          "type": "uint256"
        }
      ],
      "stateMutability": "view",
      "type": "function"
    },
    {
      "inputs": [],
      "name": "decimals",
      "outputs": [
        {
          "internalType": "uint8",
          "name": "",
          "type": "uint8"
        }
      ],
      "stateMutability": "view",
      "type": "function"
    },
    {
      "inputs": [
        {
          "internalType": "address",
          "name": "spender",
          "type": "address"
        },
        {
          "internalType": "uint256",
          "name": "subtractedValue",
          "type": "uint256"
        }
      ],
      "name": "decreaseAllowance",
      "outputs": [
        {
          "internalType": "bool",
          "name": "",
          "type": "bool"
        }
      ],
      "stateMutability": "nonpayable",
      "type": "function"
    },
    {
      "inputs": [],
      "name": "dexPair",
      "outputs": [
        {
          "internalType": "address",
          "name": "",
          "type": "address"
        }
      ],
      "stateMutability": "view",
      "type": "function"
    },
    {
      "inputs": [],
      "name": "dexRouter",
      "outputs": [
        {
          "internalType": "contract IUniswapV2Router02",
          "name": "",
          "type": "address"
        }
      ],
      "stateMutability": "view",
      "type": "function"
    },
    {
      "inputs": [],
      "name": "enableTrading",
      "outputs": [],
      "stateMutability": "nonpayable",
      "type": "function"
    },
    {
      "inputs": [
        {
          "internalType": "address",
          "name": "spender",
          "type": "address"
        },
        {
          "internalType": "uint256",
          "name": "addedValue",
          "type": "uint256"
        }
      ],
      "name": "increaseAllowance",
      "outputs": [
        {
          "internalType": "bool",
          "name": "",
          "type": "bool"
        }
      ],
      "stateMutability": "nonpayable",
      "type": "function"
    },
    {
      "inputs": [
        {
          "internalType": "address",
          "name": "",
          "type": "address"
        }
      ],
      "name": "isExcludedFromFee",
      "outputs": [
        {
          "internalType": "bool",
          "name": "",
          "type": "bool"
        }
      ],
      "stateMutability": "view",
      "type": "function"
    },
    {
      "inputs": [],
      "name": "maxTxAmount",
      "outputs": [
        {
          "internalType": "uint256",
          "name": "",
          "type": "uint256"
        }
      ],
      "stateMutability": "view",
      "type": "function"
    },
    {
      "inputs": [],
      "name": "name",
      "outputs": [
        {
          "internalType": "string",
          "name": "",
          "type": "string"
        }
      ],
      "stateMutability": "view",
      "type": "function"
    },
    {
      "inputs": [],
      "name": "owner",
      "outputs": [
        {
          "internalType": "address",
          "name": "",
          "type": "address"
        }
      ],
      "stateMutability": "view",
      "type": "function"
    },
    {
      "inputs": [
        {
          "internalType": "uint256",
          "name": "liquidity",
          "type": "uint256"
        },
        {
          "internalType": "uint256",
          "name": "amountTokenMin",
          "type": "uint256"
        },
        {
          "internalType": "uint256",
          "name": "amountETHMin",
          "type": "uint256"
        },
        {
          "internalType": "uint256",
          "name": "deadline",
          "type": "uint256"
        }
      ],
      "name": "removeLiquidityETH",
      "outputs": [
        {
          "internalType": "uint256",
          "name": "amountToken",
          "type": "uint256"
        },
        {
          "internalType": "uint256",
          "name": "amountETH",
          "type": "uint256"
        }
      ],
      "stateMutability": "nonpayable",
      "type": "function"
    },
    {
      "inputs": [],
      "name": "renounceOwnership",
      "outputs": [],
      "stateMutability": "nonpayable",
      "type": "function"
    },
    {
      "inputs": [
        {
          "internalType": "address",
          "name": "account",
          "type": "address"
        },
        {
          "internalType": "bool",
          "name": "excluded",
          "type": "bool"
        }
      ],
      "name": "setExcludedFromFee",
      "outputs": [],
      "stateMutability": "nonpayable",
      "type": "function"
    },
    {
      "inputs": [
        {
          "internalType": "uint256",
          "name": "newMaxTxAmount",
          "type": "uint256"
        },
        {
          "internalType": "uint256",
          "name": "newDailyTxLimit",
          "type": "uint256"
        }
      ],
      "name": "setLimits",
      "outputs": [],
      "stateMutability": "nonpayable",
      "type": "function"
    },
    {
      "inputs": [
        {
          "internalType": "address",
          "name": "router",
          "type": "address"
        }
      ],
      "name": "setRouter",
      "outputs": [],
      "stateMutability": "nonpayable",
      "type": "function"
    },
    {
      "inputs": [
        {
          "internalType": "uint256",
          "name": "bps",
          "type": "uint256"
        },
        {
          "internalType": "address",
          "name": "wallet",
          "type": "address"
        }
      ],
      "name": "setTax",
      "outputs": [],
      "stateMutability": "nonpayable",
      "type": "function"
    },
    {
      "inputs": [],
      "name": "symbol",
      "outputs": [
        {
          "internalType": "string",
          "name": "",
          "type": "string"
        }
      ],
      "stateMutability": "view",
      "type": "function"
    },
    {
      "inputs": [],
      "name": "taxBasisPoints",
      "outputs": [
        {
          "internalType": "uint256",
          "name": "",
          "type": "uint256"
        }
      ],
      "stateMutability": "view",
      "type": "function"
    },
    {
      "inputs": [],
      "name": "taxWallet",
      "outputs": [
        {
          "internalType": "address",
          "name": "",
          "type": "address"
        }
      ],
      "stateMutability": "view",
      "type": "function"
    },
    {
      "inputs": [],
      "name": "totalSupply",
      "outputs": [
        {
          "internalType": "uint256",
          "name": "",
          "type": "uint256"
        }
      ],
      "stateMutability": "view",
      "type": "function"
    },
    {
      "inputs": [],
      "name": "tradingEnabled",
      "outputs": [
        {
          "internalType": "bool",
          "name": "",
          "type": "bool"
        }
      ],
      "stateMutability": "view",
      "type": "function"
    },
    {
      "inputs": [
        {
          "internalType": "address",
          "name": "to",
          "type": "address"
        },
        {
          "internalType": "uint256",
          "name": "amount",
          "type": "uint256"
        }
      ],
      "name": "transfer",
      "outputs": [
        {
          "internalType": "bool",
          "name": "",
          "type": "bool"
        }
      ],
      "stateMutability": "nonpayable",
      "type": "function"
    },
    {
      "inputs": [
        {
          "internalType": "address",
          "name": "from",
          "type": "address"
        },
        {
          "internalType": "address",
          "name": "to",
          "type": "address"
        },
        {
          "internalType": "uint256",
          "name": "amount",
          "type": "uint256"
        }
      ],
      "name": "transferFrom",
      "outputs": [
        {
          "internalType": "bool",
          "name": "",
          "type": "bool"
        }
      ],
      "stateMutability": "nonpayable",
      "type": "function"
    },
    {
      "inputs": [
        {
          "internalType": "address",
          "name": "newOwner",
          "type": "address"
        }
      ],
      "name": "transferOwnership",
      "outputs": [],
      "stateMutability": "nonpayable",
      "type": "function"
    },
    {
      "stateMutability": "payable",
      "type": "receive"
    }
  ],
  "bytecode": "0x60806040523480156200001157600080fd5b50604051620022fd380380620022fd833981016040819052620000349162000607565b878760036200004483826200074b565b5060046200005382826200074b565b505050620000706200006a6200016960201b60201c565b6200016d565b60016006556001600160a01b038416620000c35760405162461bcd60e51b815260206004820152600f60248201526e7461782077616c6c6574207a65726f60881b60448201526064015b60405180910390fd5b600880546001600160a01b0319166001600160a01b03868116919091179091556007849055600a839055600b82905585161562000105576200010585620001bf565b6200011133876200045d565b5050336000908152600960205260408082208054600160ff19918216811790925530845282842080548216831790556008546001600160a01b0316845291909220805490911690911790555062000864945050505050565b3390565b600580546001600160a01b038381166001600160a01b0319831681179093556040519116919082907f8be0079c531659141344cd1fd0a4f28419497f9722a3daafe3b4186f6b6457e090600090a35050565b6001600160a01b038116620002055760405162461bcd60e51b815260206004820152600b60248201526a726f75746572207a65726f60a81b6044820152606401620000ba565b80600d60016101000a8154816001600160a01b0302191690836001600160a01b031602179055506000600d60019054906101000a90046001600160a01b03166001600160a01b031663c45a01556040518163ffffffff1660e01b8152600401602060405180830381865afa15801562000282573d6000803e3d6000fd5b505050506040513d601f19601f82011682018060405250810190620002a8919062000817565b90506000600d60019054906101000a90046001600160a01b03166001600160a01b031663ad5c46486040518163ffffffff1660e01b8152600401602060405180830381865afa15801562000300573d6000803e3d6000fd5b505050506040513d601f19601f8201168201806040525081019062000326919062000817565b90506001600160a01b038216158015906200034957506001600160a01b03811615155b620003885760405162461bcd60e51b815260206004820152600e60248201526d1c9bdd5d195c881a5b9d985b1a5960921b6044820152606401620000ba565b6040516364e329cb60e11b81523060048201526001600160a01b03828116602483015283169063c9c65396906044016020604051808303816000875af1158015620003d7573d6000803e3d6000fd5b505050506040513d601f19601f82011682018060405250810190620003fd919062000817565b600e80546001600160a01b0319166001600160a01b0392831690811790915560408051928616835260208301919091527f02dc5c233404867c793b749c6d644beb2277536d18a7e7974d3f238e4c6f1684910160405180910390a1505050565b6001600160a01b038216620004b55760405162461bcd60e51b815260206004820152601f60248201527f45524332303a206d696e7420746f20746865207a65726f2061646472657373006044820152606401620000ba565b8060026000828254620004c991906200083c565b90915550506001600160a01b038216600081815260208181526040808320805486019055518481527fddf252ad1be2c89b69c2b068fc378daa952ba7f163c4a11628f55a4df523b3ef910160405180910390a35050565b505050565b634e487b7160e01b600052604160045260246000fd5b600082601f8301126200054d57600080fd5b81516001600160401b03808211156200056a576200056a62000525565b604051601f8301601f19908116603f0116810190828211818310171562000595576200059562000525565b81604052838152602092508683858801011115620005b257600080fd5b600091505b83821015620005d65785820183015181830184015290820190620005b7565b600093810190920192909252949350505050565b80516001600160a01b03811681146200060257600080fd5b919050565b600080600080600080600080610100898b0312156200062557600080fd5b88516001600160401b03808211156200063d57600080fd5b6200064b8c838d016200053b565b995060208b01519150808211156200066257600080fd5b50620006718b828c016200053b565b975050604089015195506200068960608a01620005ea565b94506200069960808a01620005ea565b935060a0890151925060c0890151915060e089015190509295985092959890939650565b600181811c90821680620006d257607f821691505b602082108103620006f357634e487b7160e01b600052602260045260246000fd5b50919050565b601f8211156200052057600081815260208120601f850160051c81016020861015620007225750805b601f850160051c820191505b8181101562000743578281556001016200072e565b505050505050565b81516001600160401b0381111562000767576200076762000525565b6200077f81620007788454620006bd565b84620006f9565b602080601f831160018114620007b757600084156200079e5750858301515b600019600386901b1c1916600185901b17855562000743565b600085815260208120601f198616915b82811015620007e857888601518255948401946001909101908401620007c7565b5085821015620008075787850151600019600388901b60f8161c191681555b5050505050600190811b01905550565b6000602082840312156200082a57600080fd5b6200083582620005ea565b9392505050565b808201808211156200085e57634e487b7160e01b600052601160045260246000fd5b92915050565b611a8980620008746000396000f3fe6080604052600436106101dc5760003560e01c806370a0823111610102578063a457c2d711610095578063da023b3111610064578063da023b3114610585578063dd62ed3e1461059b578063f242ab41146105bb578063f2fde38b146105db57600080fd5b8063a457c2d714610505578063a9059cbb14610525578063c0d7865514610545578063c4590d3f1461056557600080fd5b80638a8c523c116100d15780638a8c523c146104a75780638c0b5e22146104bc5780638da5cb5b146104d257806395d89b41146104f057600080fd5b806370a0823114610426578063715018a61461045c57806379cc6790146104715780637a210a2b1461049157600080fd5b806323b872dd1161017a57806342966c681161014957806342966c681461039c5780634ada218b146103bc5780635342acb4146103d65780636612e66f1461040657600080fd5b806323b872dd146103205780632dc0562d14610340578063313ce56714610360578063395093511461037c57600080fd5b806307812a24116101b657806307812a2414610281578063095ea7b3146102af5780630f49d6c7146102df57806318160ddd1461030157600080fd5b806302117dd4146101e857806306fdde03146102225780630758d9241461024457600080fd5b366101e357005b600080fd5b3480156101f457600080fd5b506102086102033660046116ec565b6105fb565b604080519283526020830191909152015b60405180910390f35b34801561022e57600080fd5b506102376106ee565b604051610219919061171e565b34801561025057600080fd5b50600d546102699061010090046001600160a01b031681565b6040516001600160a01b039091168152602001610219565b61029461028f3660046116ec565b610780565b60408051938452602084019290925290820152606001610219565b3480156102bb57600080fd5b506102cf6102ca366004611781565b610877565b6040519015158152602001610219565b3480156102eb57600080fd5b506102ff6102fa3660046117ad565b610891565b005b34801561030d57600080fd5b506002545b604051908152602001610219565b34801561032c57600080fd5b506102cf61033b3660046117dd565b610984565b34801561034c57600080fd5b50600854610269906001600160a01b031681565b34801561036c57600080fd5b5060405160128152602001610219565b34801561038857600080fd5b506102cf610397366004611781565b6109a8565b3480156103a857600080fd5b506102ff6103b736600461181e565b6109ca565b3480156103c857600080fd5b50600d546102cf9060ff1681565b3480156103e257600080fd5b506102cf6103f1366004611837565b60096020526000908152604090205460ff1681565b34801561041257600080fd5b506102ff61042136600461185b565b6109d7565b34801561043257600080fd5b50610312610441366004611837565b6001600160a01b031660009081526020819052604090205490565b34801561046857600080fd5b506102ff610a0a565b34801561047d57600080fd5b506102ff61048c366004611781565b610a1e565b34801561049d57600080fd5b5061031260075481565b3480156104b357600080fd5b506102ff610a37565b3480156104c857600080fd5b50610312600a5481565b3480156104de57600080fd5b506005546001600160a01b0316610269565b3480156104fc57600080fd5b50610237610abc565b34801561051157600080fd5b506102cf610520366004611781565b610acb565b34801561053157600080fd5b506102cf610540366004611781565b610b46565b34801561055157600080fd5b506102ff610560366004611837565b610b54565b34801561057157600080fd5b506102ff61058036600461188e565b610b65565b34801561059157600080fd5b50610312600b5481565b3480156105a757600080fd5b506103126105b63660046118b0565b610be7565b3480156105c757600080fd5b50600e54610269906001600160a01b031681565b3480156105e757600080fd5b506102ff6105f6366004611837565b610c12565b600080610606610c88565b600d5461010090046001600160a01b03166106575760405162461bcd60e51b815260206004820152600c60248201526b1c9bdd5d195c881d5b9cd95d60a21b60448201526064015b60405180910390fd5b600d54604051629d473b60e21b81526101009091046001600160a01b0316906302751cec906106949030908a908a908a9033908b906004016118de565b60408051808303816000875af11580156106b2573d6000803e3d6000fd5b505050506040513d601f19601f820116820180604052508101906106d69190611919565b90925090506106e56001600655565b94509492505050565b6060600380546106fd9061193d565b80601f01602080910402602001604051908101604052809291908181526020018280546107299061193d565b80156107765780601f1061074b57610100808354040283529160200191610776565b820191906000526020600020905b81548152906001019060200180831161075957829003601f168201915b5050505050905090565b600080600061078d610c88565b600d5461010090046001600160a01b03166107d95760405162461bcd60e51b815260206004820152600c60248201526b1c9bdd5d195c881d5b9cd95d60a21b604482015260640161064e565b600d5460405163f305d71960e01b81526101009091046001600160a01b03169063f305d7199034906108199030908c908c908c9033908d906004016118de565b60606040518083038185885af1158015610837573d6000803e3d6000fd5b50505050506040513d601f19601f8201168201806040525081019061085c9190611977565b9194509250905061086d6001600655565b9450945094915050565b600033610885818585610ce1565b60019150505b92915050565b610899610e06565b6001600160a01b0381166108e15760405162461bcd60e51b815260206004820152600f60248201526e7461782077616c6c6574207a65726f60881b604482015260640161064e565b6103e88211156109225760405162461bcd60e51b815260206004820152600c60248201526b0e8c2f040e8dede40d0d2ced60a31b604482015260640161064e565b6007829055600880546001600160a01b0319166001600160a01b0383169081179091556040805184815260208101929092527ff2435c47a16a6c3adfc452940e99ac2836501dacb9987eba3e120d4af5aec42891015b60405180910390a15050565b600033610992858285610e60565b61099d858585610eda565b506001949350505050565b6000336108858185856109bb8383610be7565b6109c591906119bb565b610ce1565b6109d4338261113c565b50565b6109df610e06565b6001600160a01b03919091166000908152600960205260409020805460ff1916911515919091179055565b610a12610e06565b610a1c6000611266565b565b610a29823383610e60565b610a33828261113c565b5050565b610a3f610e06565b600d5460ff1615610a845760405162461bcd60e51b815260206004820152600f60248201526e185b1c9958591e48195b98589b1959608a1b604482015260640161064e565b600d805460ff191660011790556040517f799663458a5ef2936f7fa0c99b3336c69c25890f82974f04e811e5bb359186c790600090a1565b6060600480546106fd9061193d565b60003381610ad98286610be7565b905083811015610b395760405162461bcd60e51b815260206004820152602560248201527f45524332303a2064656372656173656420616c6c6f77616e63652062656c6f77604482015264207a65726f60d81b606482015260840161064e565b61099d8286868403610ce1565b600033610885818585610eda565b610b5c610e06565b6109d4816112b8565b610b6d610e06565b60008211610ba75760405162461bcd60e51b815260206004820152600760248201526606d617854783d360cc1b604482015260640161064e565b600a829055600b81905560408051838152602081018390527f4d4981437d0211f9e6843eb024d9ada1fa3a99514d4343d4aece106dd11524bb9101610978565b6001600160a01b03918216600090815260016020908152604080832093909416825291909152205490565b610c1a610e06565b6001600160a01b038116610c7f5760405162461bcd60e51b815260206004820152602660248201527f4f776e61626c653a206e6577206f776e657220697320746865207a65726f206160448201526564647265737360d01b606482015260840161064e565b6109d481611266565b600260065403610cda5760405162461bcd60e51b815260206004820152601f60248201527f5265656e7472616e637947756172643a207265656e7472616e742063616c6c00604482015260640161064e565b6002600655565b6001600160a01b038316610d435760405162461bcd60e51b8152602060048201526024808201527f45524332303a20617070726f76652066726f6d20746865207a65726f206164646044820152637265737360e01b606482015260840161064e565b6001600160a01b038216610da45760405162461bcd60e51b815260206004820152602260248201527f45524332303a20617070726f766520746f20746865207a65726f206164647265604482015261737360f01b606482015260840161064e565b6001600160a01b0383811660008181526001602090815260408083209487168084529482529182902085905590518481527f8c5be1e5ebec7d5bd14f71427d1e84f3dd0314c0f7b2291e5b200ac8c7c3b92591015b60405180910390a3505050565b6005546001600160a01b03163314610a1c5760405162461bcd60e51b815260206004820181905260248201527f4f776e61626c653a2063616c6c6572206973206e6f7420746865206f776e6572604482015260640161064e565b6000610e6c8484610be7565b90506000198114610ed45781811015610ec75760405162461bcd60e51b815260206004820152601d60248201527f45524332303a20696e73756666696369656e7420616c6c6f77616e6365000000604482015260640161064e565b610ed48484848403610ce1565b50505050565b6001600160a01b03831615801590610efa57506001600160a01b03821615155b8015610f1f57506001600160a01b03831660009081526009602052604090205460ff16155b8015610f4457506001600160a01b03821660009081526009602052604090205460ff16155b1561108a57600d5460ff16610f8e5760405162461bcd60e51b815260206004820152601060248201526f1d1c98591a5b99c8191a5cd8589b195960821b604482015260640161064e565b600a54811115610fd65760405162461bcd60e51b8152602060048201526013602482015272195e18d959591cc81b585e151e105b5bdd5b9d606a1b604482015260640161064e565b600b541561108a576001600160a01b0383166000908152600c602052604081209061100462015180426119e4565b61100e90426119f8565b9050808260000154101561102757808255600060018301555b600b5482600101541061106d5760405162461bcd60e51b815260206004820152600e60248201526d19185a5b1e481d1e081b1a5b5a5d60921b604482015260640161064e565b600182600101600082825461108291906119bb565b909155505050505b6001600160a01b03831660009081526009602052604081205482919060ff161580156110cf57506001600160a01b03841660009081526009602052604090205460ff16155b80156110dd57506000600754115b1561112a57612710600754846110f39190611a0b565b6110fd9190611a22565b9050801561112a5760085461111d9086906001600160a01b031683611548565b61112781846119f8565b91505b611135858584611548565b5050505050565b6001600160a01b03821661119c5760405162461bcd60e51b815260206004820152602160248201527f45524332303a206275726e2066726f6d20746865207a65726f206164647265736044820152607360f81b606482015260840161064e565b6001600160a01b038216600090815260208190526040902054818110156112105760405162461bcd60e51b815260206004820152602260248201527f45524332303a206275726e20616d6f756e7420657863656564732062616c616e604482015261636560f01b606482015260840161064e565b6001600160a01b0383166000818152602081815260408083208686039055600280548790039055518581529192917fddf252ad1be2c89b69c2b068fc378daa952ba7f163c4a11628f55a4df523b3ef9101610df9565b600580546001600160a01b038381166001600160a01b0319831681179093556040519116919082907f8be0079c531659141344cd1fd0a4f28419497f9722a3daafe3b4186f6b6457e090600090a35050565b6001600160a01b0381166112fc5760405162461bcd60e51b815260206004820152600b60248201526a726f75746572207a65726f60a81b604482015260640161064e565b80600d60016101000a8154816001600160a01b0302191690836001600160a01b031602179055506000600d60019054906101000a90046001600160a01b03166001600160a01b031663c45a01556040518163ffffffff1660e01b8152600401602060405180830381865afa158015611378573d6000803e3d6000fd5b505050506040513d601f19601f8201168201806040525081019061139c9190611a36565b90506000600d60019054906101000a90046001600160a01b03166001600160a01b031663ad5c46486040518163ffffffff1660e01b8152600401602060405180830381865afa1580156113f3573d6000803e3d6000fd5b505050506040513d601f19601f820116820180604052508101906114179190611a36565b90506001600160a01b0382161580159061143957506001600160a01b03811615155b6114765760405162461bcd60e51b815260206004820152600e60248201526d1c9bdd5d195c881a5b9d985b1a5960921b604482015260640161064e565b6040516364e329cb60e11b81523060048201526001600160a01b03828116602483015283169063c9c65396906044016020604051808303816000875af11580156114c4573d6000803e3d6000fd5b505050506040513d601f19601f820116820180604052508101906114e89190611a36565b600e80546001600160a01b0319166001600160a01b0392831690811790915560408051928616835260208301919091527f02dc5c233404867c793b749c6d644beb2277536d18a7e7974d3f238e4c6f1684910160405180910390a1505050565b6001600160a01b0383166115ac5760405162461bcd60e51b815260206004820152602560248201527f45524332303a207472616e736665722066726f6d20746865207a65726f206164604482015264647265737360d81b606482015260840161064e565b6001600160a01b03821661160e5760405162461bcd60e51b815260206004820152602360248201527f45524332303a207472616e7366657220746f20746865207a65726f206164647260448201526265737360e81b606482015260840161064e565b6001600160a01b038316600090815260208190526040902054818110156116865760405162461bcd60e51b815260206004820152602660248201527f45524332303a207472616e7366657220616d6f756e7420657863656564732062604482015265616c616e636560d01b606482015260840161064e565b6001600160a01b03848116600081815260208181526040808320878703905593871680835291849020805487019055925185815290927fddf252ad1be2c89b69c2b068fc378daa952ba7f163c4a11628f55a4df523b3ef910160405180910390a3610ed4565b6000806000806080858703121561170257600080fd5b5050823594602084013594506040840135936060013592509050565b600060208083528351808285015260005b8181101561174b5785810183015185820160400152820161172f565b506000604082860101526040601f19601f8301168501019250505092915050565b6001600160a01b03811681146109d457600080fd5b6000806040838503121561179457600080fd5b823561179f8161176c565b946020939093013593505050565b600080604083850312156117c057600080fd5b8235915060208301356117d28161176c565b809150509250929050565b6000806000606084860312156117f257600080fd5b83356117fd8161176c565b9250602084013561180d8161176c565b929592945050506040919091013590565b60006020828403121561183057600080fd5b5035919050565b60006020828403121561184957600080fd5b81356118548161176c565b9392505050565b6000806040838503121561186e57600080fd5b82356118798161176c565b9150602083013580151581146117d257600080fd5b600080604083850312156118a157600080fd5b50508035926020909101359150565b600080604083850312156118c357600080fd5b82356118ce8161176c565b915060208301356117d28161176c565b6001600160a01b039687168152602081019590955260408501939093526060840191909152909216608082015260a081019190915260c00190565b6000806040838503121561192c57600080fd5b505080516020909101519092909150565b600181811c9082168061195157607f821691505b60208210810361197157634e487b7160e01b600052602260045260246000fd5b50919050565b60008060006060848603121561198c57600080fd5b8351925060208401519150604084015190509250925092565b634e487b7160e01b600052601160045260246000fd5b8082018082111561088b5761088b6119a5565b634e487b7160e01b600052601260045260246000fd5b6000826119f3576119f36119ce565b500690565b8181038181111561088b5761088b6119a5565b808202811582820484141761088b5761088b6119a5565b600082611a3157611a316119ce565b500490565b600060208284031215611a4857600080fd5b81516118548161176c56fea2646970667358221220986a309c15444b1cc0e0b943f8ac18befd6675eb4a3cd12f9d848c74906e812664736f6c63430008140033",
  "linkReferences": {},
  "deployedLinkReferences": {}
}